{
    "contractName": "DinosWithBoots",
    "abi": [
        {
            "inputs": [],
            "stateMutability": "nonpayable",
            "type": "constructor"
        },
        {
            "anonymous": false,
            "inputs": [
                {
                    "indexed": true,
                    "internalType": "address",
                    "name": "owner",
                    "type": "address"
                },
                {
                    "indexed": true,
                    "internalType": "address",
                    "name": "approved",
                    "type": "address"
                },
                {
                    "indexed": true,
                    "internalType": "uint256",
                    "name": "tokenId",
                    "type": "uint256"
                }
            ],
            "name": "Approval",
            "type": "event"
        },
        {
            "anonymous": false,
            "inputs": [
                {
                    "indexed": true,
                    "internalType": "address",
                    "name": "owner",
                    "type": "address"
                },
                {
                    "indexed": true,
                    "internalType": "address",
                    "name": "operator",
                    "type": "address"
                },
                {
                    "indexed": false,
                    "internalType": "bool",
                    "name": "approved",
                    "type": "bool"
                }
            ],
            "name": "ApprovalForAll",
            "type": "event"
        },
        {
            "anonymous": false,
            "inputs": [
                {
                    "indexed": true,
                    "internalType": "address",
                    "name": "from",
                    "type": "address"
                },
                {
                    "indexed": true,
                    "internalType": "address",
                    "name": "to",
                    "type": "address"
                },
                {
                    "indexed": true,
                    "internalType": "uint256",
                    "name": "tokenId",
                    "type": "uint256"
                }
            ],
            "name": "Transfer",
            "type": "event"
        },
        {
            "inputs": [
                {
                    "internalType": "address",
                    "name": "to",
                    "type": "address"
                },
                {
                    "internalType": "uint256",
                    "name": "tokenId",
                    "type": "uint256"
                }
            ],
            "name": "approve",
            "outputs": [],
            "stateMutability": "nonpayable",
            "type": "function"
        },
        {
            "inputs": [
                {
                    "internalType": "address",
                    "name": "owner",
                    "type": "address"
                }
            ],
            "name": "balanceOf",
            "outputs": [
                {
                    "internalType": "uint256",
                    "name": "",
                    "type": "uint256"
                }
            ],
            "stateMutability": "view",
            "type": "function"
        },
        {
            "inputs": [],
            "name": "baseTokenURI",
            "outputs": [
                {
                    "internalType": "string",
                    "name": "",
                    "type": "string"
                }
            ],
            "stateMutability": "view",
            "type": "function"
        },
        {
            "inputs": [
                {
                    "internalType": "uint256",
                    "name": "tokenId",
                    "type": "uint256"
                }
            ],
            "name": "getApproved",
            "outputs": [
                {
                    "internalType": "address",
                    "name": "",
                    "type": "address"
                }
            ],
            "stateMutability": "view",
            "type": "function"
        },
        {
            "inputs": [
                {
                    "internalType": "address",
                    "name": "_owner",
                    "type": "address"
                },
                {
                    "internalType": "address",
                    "name": "_operator",
                    "type": "address"
                }
            ],
            "name": "isApprovedForAll",
            "outputs": [
                {
                    "internalType": "bool",
                    "name": "isOperator",
                    "type": "bool"
                }
            ],
            "stateMutability": "view",
            "type": "function"
        },
        {
            "inputs": [
                {
                    "internalType": "address",
                    "name": "recipient",
                    "type": "address"
                }
            ],
            "name": "mintTo",
            "outputs": [
                {
                    "internalType": "uint256",
                    "name": "",
                    "type": "uint256"
                }
            ],
            "stateMutability": "nonpayable",
            "type": "function"
        },
        {
            "inputs": [],
            "name": "name",
            "outputs": [
                {
                    "internalType": "string",
                    "name": "",
                    "type": "string"
                }
            ],
            "stateMutability": "view",
            "type": "function"
        },
        {
            "inputs": [
                {
                    "internalType": "uint256",
                    "name": "tokenId",
                    "type": "uint256"
                }
            ],
            "name": "ownerOf",
            "outputs": [
                {
                    "internalType": "address",
                    "name": "",
                    "type": "address"
                }
            ],
            "stateMutability": "view",
            "type": "function"
        },
        {
            "inputs": [
                {
                    "internalType": "address",
                    "name": "from",
                    "type": "address"
                },
                {
                    "internalType": "address",
                    "name": "to",
                    "type": "address"
                },
                {
                    "internalType": "uint256",
                    "name": "tokenId",
                    "type": "uint256"
                }
            ],
            "name": "safeTransferFrom",
            "outputs": [],
            "stateMutability": "nonpayable",
            "type": "function"
        },
        {
            "inputs": [
                {
                    "internalType": "address",
                    "name": "from",
                    "type": "address"
                },
                {
                    "internalType": "address",
                    "name": "to",
                    "type": "address"
                },
                {
                    "internalType": "uint256",
                    "name": "tokenId",
                    "type": "uint256"
                },
                {
                    "internalType": "bytes",
                    "name": "_data",
                    "type": "bytes"
                }
            ],
            "name": "safeTransferFrom",
            "outputs": [],
            "stateMutability": "nonpayable",
            "type": "function"
        },
        {
            "inputs": [
                {
                    "internalType": "address",
                    "name": "operator",
                    "type": "address"
                },
                {
                    "internalType": "bool",
                    "name": "approved",
                    "type": "bool"
                }
            ],
            "name": "setApprovalForAll",
            "outputs": [],
            "stateMutability": "nonpayable",
            "type": "function"
        },
        {
            "inputs": [
                {
                    "internalType": "string",
                    "name": "_baseTokenURI",
                    "type": "string"
                }
            ],
            "name": "setBaseTokenURI",
            "outputs": [],
            "stateMutability": "nonpayable",
            "type": "function"
        },
        {
            "inputs": [
                {
                    "internalType": "bytes4",
                    "name": "interfaceId",
                    "type": "bytes4"
                }
            ],
            "name": "supportsInterface",
            "outputs": [
                {
                    "internalType": "bool",
                    "name": "",
                    "type": "bool"
                }
            ],
            "stateMutability": "view",
            "type": "function"
        },
        {
            "inputs": [],
            "name": "symbol",
            "outputs": [
                {
                    "internalType": "string",
                    "name": "",
                    "type": "string"
                }
            ],
            "stateMutability": "view",
            "type": "function"
        },
        {
            "inputs": [
                {
                    "internalType": "uint256",
                    "name": "tokenId",
                    "type": "uint256"
                }
            ],
            "name": "tokenURI",
            "outputs": [
                {
                    "internalType": "string",
                    "name": "",
                    "type": "string"
                }
            ],
            "stateMutability": "view",
            "type": "function"
        },
        {
            "inputs": [
                {
                    "internalType": "address",
                    "name": "from",
                    "type": "address"
                },
                {
                    "internalType": "address",
                    "name": "to",
                    "type": "address"
                },
                {
                    "internalType": "uint256",
                    "name": "tokenId",
                    "type": "uint256"
                }
            ],
            "name": "transferFrom",
            "outputs": [],
            "stateMutability": "nonpayable",
            "type": "function"
        }
    ],
    "bytecode": "60806040523480156200001157600080fd5b50604080518082018252600e81526d64696e6f7377697468626f6f747360901b60208083019182528351808501909452600384526213919560ea1b9084015281519192916200006391600091620000b3565b50805162000079906001906020840190620000b3565b5050506040518060800160405280604781526020016200188f604791398051620000ac91600791602090910190620000b3565b5062000195565b828054620000c19062000159565b90600052602060002090601f016020900481019282620000e5576000855562000130565b82601f106200010057805160ff191683800117855562000130565b8280016001018555821562000130579182015b828111156200013057825182559160200191906001019062000113565b506200013e92915062000142565b5090565b5b808211156200013e576000815560010162000143565b600181811c908216806200016e57607f821691505b6020821081036200018f57634e487b7160e01b600052602260045260246000fd5b50919050565b6116ea80620001a56000396000f3fe608060405234801561001057600080fd5b50600436106101005760003560e01c806370a0823111610097578063b88d4fde11610066578063b88d4fde1461021d578063c87b56dd14610230578063d547cfb714610243578063e985e9c51461024b57600080fd5b806370a08231146101ce578063755edd17146101ef57806395d89b4114610202578063a22cb4651461020a57600080fd5b806323b872dd116100d357806323b872dd1461018257806330176e131461019557806342842e0e146101a85780636352211e146101bb57600080fd5b806301ffc9a71461010557806306fdde031461012d578063081812fc14610142578063095ea7b31461016d575b600080fd5b610118610113366004611186565b61025e565b60405190151581526020015b60405180910390f35b6101356102b0565b60405161012491906111fb565b61015561015036600461120e565b610342565b6040516001600160a01b039091168152602001610124565b61018061017b366004611243565b6103dc565b005b61018061019036600461126d565b610503565b6101806101a3366004611335565b61053b565b6101806101b636600461126d565b610552565b6101556101c936600461120e565b61056d565b6101e16101dc36600461137e565b6105e4565b604051908152602001610124565b6101e16101fd36600461137e565b61066b565b6101356106b9565b610180610218366004611399565b6106c8565b61018061022b3660046113d5565b6106da565b61013561023e36600461120e565b610719565b6101356107f4565b610118610259366004611451565b610882565b60006001600160e01b031982166380ac58cd60e01b148061028f57506001600160e01b03198216635b5e139f60e01b145b806102aa57506301ffc9a760e01b6001600160e01b03198316145b92915050565b6060600080546102bf90611484565b80601f01602080910402602001604051908101604052809291908181526020018280546102eb90611484565b80156103385780601f1061030d57610100808354040283529160200191610338565b820191906000526020600020905b81548152906001019060200180831161031b57829003601f168201915b5050505050905090565b6000818152600260205260408120546001600160a01b03166103c05760405162461bcd60e51b815260206004820152602c60248201527f4552433732313a20617070726f76656420717565727920666f72206e6f6e657860448201526b34b9ba32b73a103a37b5b2b760a11b60648201526084015b60405180910390fd5b506000908152600460205260409020546001600160a01b031690565b60006103e78261056d565b9050806001600160a01b0316836001600160a01b0316036104545760405162461bcd60e51b815260206004820152602160248201527f4552433732313a20617070726f76616c20746f2063757272656e74206f776e656044820152603960f91b60648201526084016103b7565b806001600160a01b03166104666108e0565b6001600160a01b031614806104825750610482816102596108e0565b6104f45760405162461bcd60e51b815260206004820152603860248201527f4552433732313a20617070726f76652063616c6c6572206973206e6f74206f7760448201527f6e6572206e6f7220617070726f76656420666f7220616c6c000000000000000060648201526084016103b7565b6104fe83836108ef565b505050565b61051461050e6108e0565b8261095d565b6105305760405162461bcd60e51b81526004016103b7906114be565b6104fe838383610a34565b805161054e9060079060208401906110d4565b5050565b6104fe838383604051806020016040528060008152506106da565b6000818152600260205260408120546001600160a01b0316806102aa5760405162461bcd60e51b815260206004820152602960248201527f4552433732313a206f776e657220717565727920666f72206e6f6e657869737460448201526832b73a103a37b5b2b760b91b60648201526084016103b7565b60006001600160a01b03821661064f5760405162461bcd60e51b815260206004820152602a60248201527f4552433732313a2062616c616e636520717565727920666f7220746865207a65604482015269726f206164647265737360b01b60648201526084016103b7565b506001600160a01b031660009081526003602052604090205490565b60008060015b600781136106b257610687600680546001019055565b600061069260065490565b905061069e8582610bd0565b9150806106aa81611525565b915050610671565b5092915050565b6060600180546102bf90611484565b61054e6106d36108e0565b8383610bea565b6106eb6106e56108e0565b8361095d565b6107075760405162461bcd60e51b81526004016103b7906114be565b61071384848484610cb8565b50505050565b6000818152600260205260409020546060906001600160a01b03166107985760405162461bcd60e51b815260206004820152602f60248201527f4552433732314d657461646174613a2055524920717565727920666f72206e6f60448201526e3732bc34b9ba32b73a103a37b5b2b760891b60648201526084016103b7565b60006107a2610ceb565b905060008151116107c257604051806020016040528060008152506107ed565b806107cc84610cfa565b6040516020016107dd929190611544565b6040516020818303038152906040525b9392505050565b6007805461080190611484565b80601f016020809104026020016040519081016040528092919081815260200182805461082d90611484565b801561087a5780601f1061084f5761010080835404028352916020019161087a565b820191906000526020600020905b81548152906001019060200180831161085d57829003601f168201915b505050505081565b60007358807bad0b376efc12f5ad86aac70e78ed67dead196001600160a01b038316016108b1575060016102aa565b506001600160a01b03918216600090815260056020908152604080832093909416825291909152205460ff1690565b60006108ea610dfb565b905090565b600081815260046020526040902080546001600160a01b0319166001600160a01b03841690811790915581906109248261056d565b6001600160a01b03167f8c5be1e5ebec7d5bd14f71427d1e84f3dd0314c0f7b2291e5b200ac8c7c3b92560405160405180910390a45050565b6000818152600260205260408120546001600160a01b03166109d65760405162461bcd60e51b815260206004820152602c60248201527f4552433732313a206f70657261746f7220717565727920666f72206e6f6e657860448201526b34b9ba32b73a103a37b5b2b760a11b60648201526084016103b7565b60006109e18361056d565b9050806001600160a01b0316846001600160a01b03161480610a085750610a088185610882565b80610a2c5750836001600160a01b0316610a2184610342565b6001600160a01b0316145b949350505050565b826001600160a01b0316610a478261056d565b6001600160a01b031614610aab5760405162461bcd60e51b815260206004820152602560248201527f4552433732313a207472616e736665722066726f6d20696e636f72726563742060448201526437bbb732b960d91b60648201526084016103b7565b6001600160a01b038216610b0d5760405162461bcd60e51b8152602060048201526024808201527f4552433732313a207472616e7366657220746f20746865207a65726f206164646044820152637265737360e01b60648201526084016103b7565b610b186000826108ef565b6001600160a01b0383166000908152600360205260408120805460019290610b41908490611573565b90915550506001600160a01b0382166000908152600360205260408120805460019290610b6f90849061158a565b909155505060008181526002602052604080822080546001600160a01b0319166001600160a01b0386811691821790925591518493918716917fddf252ad1be2c89b69c2b068fc378daa952ba7f163c4a11628f55a4df523b3ef91a4505050565b61054e828260405180602001604052806000815250610e57565b816001600160a01b0316836001600160a01b031603610c4b5760405162461bcd60e51b815260206004820152601960248201527f4552433732313a20617070726f766520746f2063616c6c65720000000000000060448201526064016103b7565b6001600160a01b03838116600081815260056020908152604080832094871680845294825291829020805460ff191686151590811790915591519182527f17307eab39ab6107e8899845ad3d59bd9653f200f220920489ca2b5937696c31910160405180910390a3505050565b610cc3848484610a34565b610ccf84848484610e8a565b6107135760405162461bcd60e51b81526004016103b7906115a2565b6060600780546102bf90611484565b606081600003610d215750506040805180820190915260018152600360fc1b602082015290565b8160005b8115610d4b5780610d35816115f4565b9150610d449050600a8361161c565b9150610d25565b60008167ffffffffffffffff811115610d6657610d666112a9565b6040519080825280601f01601f191660200182016040528015610d90576020820181803683370190505b5090505b8415610a2c57610da5600183611573565b9150610db2600a86611630565b610dbd90603061158a565b60f81b818381518110610dd257610dd2611644565b60200101906001600160f81b031916908160001a905350610df4600a8661161c565b9450610d94565b6000303303610e5157600080368080601f0160208091040260200160405190810160405280939291908181526020018383808284376000920191909152505050503601516001600160a01b03169150610e549050565b50335b90565b610e618383610f92565b610e6e6000848484610e8a565b6104fe5760405162461bcd60e51b81526004016103b7906115a2565b60006001600160a01b0384163b15610f8757836001600160a01b031663150b7a02610eb36108e0565b8786866040518563ffffffff1660e01b8152600401610ed5949392919061165a565b6020604051808303816000875af1925050508015610f10575060408051601f3d908101601f19168201909252610f0d91810190611697565b60015b610f6d573d808015610f3e576040519150601f19603f3d011682016040523d82523d6000602084013e610f43565b606091505b508051600003610f655760405162461bcd60e51b81526004016103b7906115a2565b805181602001fd5b6001600160e01b031916630a85bd0160e11b149050610a2c565b506001949350505050565b6001600160a01b038216610fe85760405162461bcd60e51b815260206004820181905260248201527f4552433732313a206d696e7420746f20746865207a65726f206164647265737360448201526064016103b7565b6000818152600260205260409020546001600160a01b03161561104d5760405162461bcd60e51b815260206004820152601c60248201527f4552433732313a20746f6b656e20616c7265616479206d696e7465640000000060448201526064016103b7565b6001600160a01b038216600090815260036020526040812080546001929061107690849061158a565b909155505060008181526002602052604080822080546001600160a01b0319166001600160a01b03861690811790915590518392907fddf252ad1be2c89b69c2b068fc378daa952ba7f163c4a11628f55a4df523b3ef908290a45050565b8280546110e090611484565b90600052602060002090601f0160209004810192826111025760008555611148565b82601f1061111b57805160ff1916838001178555611148565b82800160010185558215611148579182015b8281111561114857825182559160200191906001019061112d565b50611154929150611158565b5090565b5b808211156111545760008155600101611159565b6001600160e01b03198116811461118357600080fd5b50565b60006020828403121561119857600080fd5b81356107ed8161116d565b60005b838110156111be5781810151838201526020016111a6565b838111156107135750506000910152565b600081518084526111e78160208601602086016111a3565b601f01601f19169290920160200192915050565b6020815260006107ed60208301846111cf565b60006020828403121561122057600080fd5b5035919050565b80356001600160a01b038116811461123e57600080fd5b919050565b6000806040838503121561125657600080fd5b61125f83611227565b946020939093013593505050565b60008060006060848603121561128257600080fd5b61128b84611227565b925061129960208501611227565b9150604084013590509250925092565b634e487b7160e01b600052604160045260246000fd5b600067ffffffffffffffff808411156112da576112da6112a9565b604051601f8501601f19908116603f01168101908282118183101715611302576113026112a9565b8160405280935085815286868601111561131b57600080fd5b858560208301376000602087830101525050509392505050565b60006020828403121561134757600080fd5b813567ffffffffffffffff81111561135e57600080fd5b8201601f8101841361136f57600080fd5b610a2c848235602084016112bf565b60006020828403121561139057600080fd5b6107ed82611227565b600080604083850312156113ac57600080fd5b6113b583611227565b9150602083013580151581146113ca57600080fd5b809150509250929050565b600080600080608085870312156113eb57600080fd5b6113f485611227565b935061140260208601611227565b925060408501359150606085013567ffffffffffffffff81111561142557600080fd5b8501601f8101871361143657600080fd5b611445878235602084016112bf565b91505092959194509250565b6000806040838503121561146457600080fd5b61146d83611227565b915061147b60208401611227565b90509250929050565b600181811c9082168061149857607f821691505b6020821081036114b857634e487b7160e01b600052602260045260246000fd5b50919050565b60208082526031908201527f4552433732313a207472616e736665722063616c6c6572206973206e6f74206f6040820152701ddb995c881b9bdc88185c1c1c9bdd9959607a1b606082015260800190565b634e487b7160e01b600052601160045260246000fd5b60006001600160ff1b01820161153d5761153d61150f565b5060010190565b600083516115568184602088016111a3565b83519083019061156a8183602088016111a3565b01949350505050565b6000828210156115855761158561150f565b500390565b6000821982111561159d5761159d61150f565b500190565b60208082526032908201527f4552433732313a207472616e7366657220746f206e6f6e20455243373231526560408201527131b2b4bb32b91034b6b83632b6b2b73a32b960711b606082015260800190565b60006001820161153d5761153d61150f565b634e487b7160e01b600052601260045260246000fd5b60008261162b5761162b611606565b500490565b60008261163f5761163f611606565b500690565b634e487b7160e01b600052603260045260246000fd5b6001600160a01b038581168252841660208201526040810183905260806060820181905260009061168d908301846111cf565b9695505050505050565b6000602082840312156116a957600080fd5b81516107ed8161116d56fea2646970667358221220935690f1d0e19f1f5608143eb643e430fbf332f70e3f83a78c4a7393df318b0464736f6c634300080e0033697066733a2f2f6261667962656968663579367a377a376e7671786f737a66796e71786a36367633657a34756a636866733775716975367a616169666576727971342f7b69647d",
    "sourcePath": "d:/NFT/Polygon/contracts/DinosWithBoots.sol",
    "compiler": {
        "name": "solc",
        "version": "0.8.14+commit.80d49f37"
    },
    "functionHashes": {
        "approve(address,uint256)": "095ea7b3",
        "balanceOf(address)": "70a08231",
        "baseTokenURI()": "d547cfb7",
        "getApproved(uint256)": "081812fc",
        "isApprovedForAll(address,address)": "e985e9c5",
        "mintTo(address)": "755edd17",
        "name()": "06fdde03",
        "ownerOf(uint256)": "6352211e",
        "safeTransferFrom(address,address,uint256)": "42842e0e",
        "safeTransferFrom(address,address,uint256,bytes)": "b88d4fde",
        "setApprovalForAll(address,bool)": "a22cb465",
        "setBaseTokenURI(string)": "30176e13",
        "supportsInterface(bytes4)": "01ffc9a7",
        "symbol()": "95d89b41",
        "tokenURI(uint256)": "c87b56dd",
        "transferFrom(address,address,uint256)": "23b872dd"
    },
    "gasEstimates": {
        "creation": {
            "codeDepositCost": "1173200",
            "executionCost": "infinite",
            "totalCost": "infinite"
        },
        "external": {
            "approve(address,uint256)": "infinite",
            "balanceOf(address)": "2612",
            "baseTokenURI()": "infinite",
            "getApproved(uint256)": "4760",
            "isApprovedForAll(address,address)": "infinite",
            "mintTo(address)": "infinite",
            "name()": "infinite",
            "ownerOf(uint256)": "2645",
            "safeTransferFrom(address,address,uint256)": "infinite",
            "safeTransferFrom(address,address,uint256,bytes)": "infinite",
            "setApprovalForAll(address,bool)": "infinite",
            "setBaseTokenURI(string)": "infinite",
            "supportsInterface(bytes4)": "534",
            "symbol()": "infinite",
            "tokenURI(uint256)": "infinite",
            "transferFrom(address,address,uint256)": "infinite"
        },
        "internal": {
            "_baseURI()": "infinite",
            "_msgSender()": "infinite"
        }
    }
}